:100000000C942A000C9434000C9434000C943400AA
:100010000C9434000C9434000C9434000C94340090
:100020000C9434000C9434000C9434000C94340080
:100030000C9434000C9434000C9434000C94340070
:100040000C9434000C9434000C9434000C94340060
:100050000C94340011241FBECFE5D8E0DEBFCDBF25
:100060000E943F000C944E000C94000080EA87BB75
:1000700081E58DB908958FB9779BFECF08950E94D1
:10008000360081E60E943B002FE986E891E021508E
:1000900080409040E1F700C00000F3CFF894FFCF1C
:00000001FF
