:100000000C942A000C943C000C943C000C943C0092
:100010000C943C000C943C000C943C000C943C0070
:100020000C943C000C943E000C943C000C943C005E
:100030000C943C000C943C000C943C000C943C0050
:100040000C943C000C943C000C943C000C943C0040
:100050000C943C0011241FBECFE5D8E0DEBFCDBF1D
:1000600020E0A0E6B0E001C01D92A236B207E1F7A1
:100070000E9468000C9473000C9400001F920F9271
:100080000FB60F9211248F939F93809160009091EF
:100090006100019690936100809360008091600000
:1000A000909161004F9739F41092610010926000B6
:1000B00088B3809588BB9F918F910F900FBE0F9052
:1000C0001F9018951FBC81E08EBD84E089BF089504
:1000D000CFEFC7BB0E9462001092610010926000D7
:0A00E000C8BB7894FFCFF894FFCF5F
:00000001FF
